{
  "contractName": "Auction",
  "abi": [
    {
      "inputs": [
        {
          "internalType": "uint256",
          "name": "startingPriceWei",
          "type": "uint256"
        }
      ],
      "stateMutability": "nonpayable",
      "type": "constructor"
    },
    {
      "inputs": [],
      "name": "auctionState",
      "outputs": [
        {
          "internalType": "enum Auction.State",
          "name": "",
          "type": "uint8"
        }
      ],
      "stateMutability": "view",
      "type": "function",
      "constant": true
    },
    {
      "inputs": [],
      "name": "latestBid",
      "outputs": [
        {
          "internalType": "uint256",
          "name": "",
          "type": "uint256"
        }
      ],
      "stateMutability": "view",
      "type": "function",
      "constant": true
    },
    {
      "inputs": [],
      "name": "latestBidder",
      "outputs": [
        {
          "internalType": "address",
          "name": "",
          "type": "address"
        }
      ],
      "stateMutability": "view",
      "type": "function",
      "constant": true
    },
    {
      "inputs": [],
      "name": "seller",
      "outputs": [
        {
          "internalType": "address",
          "name": "",
          "type": "address"
        }
      ],
      "stateMutability": "view",
      "type": "function",
      "constant": true
    },
    {
      "inputs": [],
      "name": "bid",
      "outputs": [],
      "stateMutability": "payable",
      "type": "function",
      "payable": true
    },
    {
      "inputs": [],
      "name": "finishAuction",
      "outputs": [],
      "stateMutability": "nonpayable",
      "type": "function"
    }
  ],
  "bytecode": "0x608060405234801561001057600080fd5b5060405161043e38038061043e83398101604081905261002f91610056565b600080546001600160a01b031916331790556001556002805460ff60a01b1916905561006f565b60006020828403121561006857600080fd5b5051919050565b6103c08061007e6000396000f3fe6080604052600436106100555760003560e01c806308551a531461005a5780631998aeef14610097578063430ca46f146100a15780635dd672ec146100b657806367a884e5146100da5780637fb45099146100fa575b600080fd5b34801561006657600080fd5b5060005461007a906001600160a01b031681565b6040516001600160a01b0390911681526020015b60405180910390f35b61009f610128565b005b3480156100ad57600080fd5b5061009f610276565b3480156100c257600080fd5b506100cc60015481565b60405190815260200161008e565b3480156100e657600080fd5b5060025461007a906001600160a01b031681565b34801561010657600080fd5b5060025461011b90600160a01b900460ff1681565b60405161008e9190610362565b6000546001600160a01b031633141561014057600080fd5b60015434116101a05760405162461bcd60e51b815260206004820152602160248201527f426964206d7573742062652067726561746572207468616e206c6173742062696044820152601960fa1b60648201526084015b60405180910390fd5b6001600254600160a01b900460ff1660018111156101c0576101c061034c565b141561020e5760405162461bcd60e51b815260206004820152601b60248201527f41756374696f6e20697320616c72656164792066696e697368656400000000006044820152606401610197565b60018054600280546001600160a01b03198116331790915534909255906001600160a01b03168015610272576040516001600160a01b0382169083156108fc029084906000818181858888f19350505050158015610270573d6000803e3d6000fd5b505b5050565b6000546001600160a01b0316331461028d57600080fd5b6001600254600160a01b900460ff1660018111156102ad576102ad61034c565b14156102fb5760405162461bcd60e51b815260206004820152601b60248201527f41756374696f6e20697320616c72656164792066696e697368656400000000006044820152606401610197565b6002805460ff60a01b1916600160a01b179055600080546001546040516001600160a01b039092169281156108fc029290818181858888f19350505050158015610349573d6000803e3d6000fd5b50565b634e487b7160e01b600052602160045260246000fd5b602081016002831061038457634e487b7160e01b600052602160045260246000fd5b9190529056fea26469706673582212209a0f62df7391dd8f371315e8511e0cfb032e779e1b76e2ea59bc6862d68870f264736f6c634300080c0033",
  "immutableReferences": {},
  "source": "// SPDX-License-Identifier: GPL-3.0\npragma solidity ^0.8.7;\n\ncontract Auction {\n    address public seller;\n    uint public latestBid;\n    address public latestBidder;\n    enum State {Started, Ended}\n    State public auctionState;\n\n    constructor(uint startingPriceWei) {\n        seller = msg.sender;\n        latestBid = startingPriceWei;\n        auctionState = State.Started;\n    }\n\n    function bid() public payable notOwner {\n        // should revert if funds sent are not greater than last bid\n        require(\n            msg.value > latestBid,\n            \"Bid must be greater than last bid\"\n        );\n        // should revert if auction is already finished\n        require(\n            auctionState != State.Ended,\n            \"Auction is already finished\"\n        );\n        uint previousBid = latestBid;\n        address previousBidder = latestBidder;\n        // should update latestBidder, latestBid fields\n        latestBidder = msg.sender;\n        latestBid = msg.value;\n\n        // should return previous bid to the bidder\n        if (previousBidder != address(0)) {\n            payable(previousBidder).transfer(previousBid);\n        }\n    }\n\n    function finishAuction() public onlyOwner {\n        require(\n            auctionState != State.Ended,\n            \"Auction is already finished\"\n        );\n        auctionState = State.Ended;\n        // should withdraw winning bid to the seller\n        payable(seller).transfer(latestBid);\n    }\n\n    modifier notOwner(){\n        require(msg.sender != seller);\n        _;\n    }\n    \n    modifier onlyOwner(){\n        require(msg.sender == seller);\n        _;\n    }\n}\n",
  "sourcePath": "/Users/jdnichollsc/dev/interviews/Novacomp/public-auction/contracts/Auction.sol",
  "compiler": {
    "name": "solc",
    "version": "0.8.12+commit.f00d7308.Emscripten.clang"
  },
  "schemaVersion": "3.4.5",
  "updatedAt": "2022-03-06T18:22:19.449Z",
  "networkType": "ethereum",
  "devdoc": {
    "kind": "dev",
    "methods": {},
    "version": 1
  },
  "userdoc": {
    "kind": "user",
    "methods": {},
    "version": 1
  }
}